{
  "contractName": "ReReviews",
  "abi": [
    {
      "constant": true,
      "inputs": [
        {
          "name": "",
          "type": "uint256"
        }
      ],
      "name": "reviews",
      "outputs": [
        {
          "name": "id",
          "type": "uint256"
        },
        {
          "name": "reviewer",
          "type": "address"
        },
        {
          "name": "visitor",
          "type": "address"
        },
        {
          "name": "name",
          "type": "string"
        },
        {
          "name": "comments",
          "type": "string"
        },
        {
          "name": "totalUpvotes",
          "type": "uint256"
        },
        {
          "name": "totalRewards",
          "type": "uint256"
        },
        {
          "name": "totalDownvotes",
          "type": "uint256"
        },
        {
          "name": "ipfsHash",
          "type": "string"
        }
      ],
      "payable": false,
      "stateMutability": "view",
      "type": "function"
    },
    {
      "anonymous": false,
      "inputs": [
        {
          "indexed": true,
          "name": "_id",
          "type": "uint256"
        },
        {
          "indexed": true,
          "name": "_reviewer",
          "type": "address"
        },
        {
          "indexed": false,
          "name": "_name",
          "type": "string"
        },
        {
          "indexed": false,
          "name": "_ipfsHash",
          "type": "string"
        }
      ],
      "name": "addReviewEvent",
      "type": "event"
    },
    {
      "anonymous": false,
      "inputs": [
        {
          "indexed": true,
          "name": "_id",
          "type": "uint256"
        },
        {
          "indexed": true,
          "name": "_reviewer",
          "type": "address"
        },
        {
          "indexed": true,
          "name": "_visitor",
          "type": "address"
        },
        {
          "indexed": false,
          "name": "_name",
          "type": "string"
        },
        {
          "indexed": false,
          "name": "_totalUpvotes",
          "type": "uint256"
        },
        {
          "indexed": false,
          "name": "_totalRewards",
          "type": "uint256"
        },
        {
          "indexed": false,
          "name": "_totalDownvotes",
          "type": "uint256"
        },
        {
          "indexed": false,
          "name": "_ipfsHash",
          "type": "string"
        }
      ],
      "name": "viewReviewEvent",
      "type": "event"
    },
    {
      "constant": false,
      "inputs": [
        {
          "name": "_name",
          "type": "string"
        },
        {
          "name": "_comments",
          "type": "string"
        },
        {
          "name": "_ipfsHash",
          "type": "string"
        }
      ],
      "name": "addReview",
      "outputs": [],
      "payable": false,
      "stateMutability": "nonpayable",
      "type": "function"
    },
    {
      "constant": true,
      "inputs": [],
      "name": "getNumberOfReviews",
      "outputs": [
        {
          "name": "",
          "type": "uint256"
        }
      ],
      "payable": false,
      "stateMutability": "view",
      "type": "function"
    },
    {
      "constant": true,
      "inputs": [],
      "name": "getReviewsToView",
      "outputs": [
        {
          "name": "",
          "type": "uint256[]"
        }
      ],
      "payable": false,
      "stateMutability": "view",
      "type": "function"
    },
    {
      "constant": false,
      "inputs": [
        {
          "name": "_id",
          "type": "uint256"
        },
        {
          "name": "_totalUp",
          "type": "uint256"
        },
        {
          "name": "_totalDown",
          "type": "uint256"
        }
      ],
      "name": "viewReview",
      "outputs": [],
      "payable": true,
      "stateMutability": "payable",
      "type": "function"
    },
    {
      "constant": false,
      "inputs": [],
      "name": "kill",
      "outputs": [],
      "payable": false,
      "stateMutability": "nonpayable",
      "type": "function"
    }
  ],
  "bytecode": "0x6080604052336000806101000a81548173ffffffffffffffffffffffffffffffffffffffff021916908373ffffffffffffffffffffffffffffffffffffffff160217905550610fe2806100536000396000f300608060405260043610610078576000357c0100000000000000000000000000000000000000000000000000000000900463ffffffff16806302afd9881461007d57806310b0e1ce146101725780631c8eb937146101a657806341c0e1b514610212578063e81c598f14610229578063e83ddcea14610254575b600080fd5b34801561008957600080fd5b50610170600480360381019080803590602001908201803590602001908080601f0160208091040260200160405190810160405280939291908181526020018383808284378201915050505050509192919290803590602001908201803590602001908080601f0160208091040260200160405190810160405280939291908181526020018383808284378201915050505050509192919290803590602001908201803590602001908080601f0160208091040260200160405190810160405280939291908181526020018383808284378201915050505050509192919290505050610454565b005b6101a4600480360381019080803590602001909291908035906020019092919080359060200190929190505050610727565b005b3480156101b257600080fd5b506101bb610ab4565b6040518080602001828103825283818151815260200191508051906020019060200280838360005b838110156101fe5780820151818401526020810190506101e3565b505050509050019250505060405180910390f35b34801561021e57600080fd5b50610227610c1c565b005b34801561023557600080fd5b5061023e610cb1565b6040518082815260200191505060405180910390f35b34801561026057600080fd5b5061027f60048036038101908080359060200190929190505050610cbb565b604051808a81526020018973ffffffffffffffffffffffffffffffffffffffff1673ffffffffffffffffffffffffffffffffffffffff1681526020018873ffffffffffffffffffffffffffffffffffffffff1673ffffffffffffffffffffffffffffffffffffffff16815260200180602001806020018781526020018681526020018581526020018060200184810384528a818151815260200191508051906020019080838360005b83811015610343578082015181840152602081019050610328565b50505050905090810190601f1680156103705780820380516001836020036101000a031916815260200191505b50848103835289818151815260200191508051906020019080838360005b838110156103a957808201518184015260208101905061038e565b50505050905090810190601f1680156103d65780820380516001836020036101000a031916815260200191505b50848103825285818151815260200191508051906020019080838360005b8381101561040f5780820151818401526020810190506103f4565b50505050905090810190601f16801561043c5780820380516001836020036101000a031916815260200191505b509c5050505050505050505050505060405180910390f35b6002600081548092919060010191905055506101206040519081016040528060025481526020013373ffffffffffffffffffffffffffffffffffffffff168152602001600073ffffffffffffffffffffffffffffffffffffffff168152602001848152602001838152602001600081526020016000815260200160008152602001828152506001600060025481526020019081526020016000206000820151816000015560208201518160010160006101000a81548173ffffffffffffffffffffffffffffffffffffffff021916908373ffffffffffffffffffffffffffffffffffffffff16021790555060408201518160020160006101000a81548173ffffffffffffffffffffffffffffffffffffffff021916908373ffffffffffffffffffffffffffffffffffffffff16021790555060608201518160030190805190602001906105a2929190610f11565b5060808201518160040190805190602001906105bf929190610f11565b5060a0820151816005015560c0820151816006015560e082015181600701556101008201518160080190805190602001906105fb929190610f11565b509050503373ffffffffffffffffffffffffffffffffffffffff166002547fedd1167195f08d6f88cb5a825a399ea4b2f976f2e71bed6455c5ab9bf73b8d168584604051808060200180602001838103835285818151815260200191508051906020019080838360005b83811015610680578082015181840152602081019050610665565b50505050905090810190601f1680156106ad5780820380516001836020036101000a031916815260200191505b50838103825284818151815260200191508051906020019080838360005b838110156106e65780820151818401526020810190506106cb565b50505050905090810190601f1680156107135780820380516001836020036101000a031916815260200191505b5094505050505060405180910390a3505050565b60008060025411151561073957600080fd5b60008411801561074b57506002548411155b151561075657600080fd5b600160008581526020019081526020016000209050600183141561079457600181600501540181600501819055503481600601540181600601819055505b60018214156107bd57600181600701540181600701819055503481600601540381600601819055505b3373ffffffffffffffffffffffffffffffffffffffff168160010160009054906101000a900473ffffffffffffffffffffffffffffffffffffffff1673ffffffffffffffffffffffffffffffffffffffff161415151561081c57600080fd5b338160020160006101000a81548173ffffffffffffffffffffffffffffffffffffffff021916908373ffffffffffffffffffffffffffffffffffffffff1602179055508060010160009054906101000a900473ffffffffffffffffffffffffffffffffffffffff1673ffffffffffffffffffffffffffffffffffffffff166108fc349081150290604051600060405180830381858888f193505050501580156108c9573d6000803e3d6000fd5b508060020160009054906101000a900473ffffffffffffffffffffffffffffffffffffffff1673ffffffffffffffffffffffffffffffffffffffff168160010160009054906101000a900473ffffffffffffffffffffffffffffffffffffffff1673ffffffffffffffffffffffffffffffffffffffff16857f03911eec88bd04181b042d7836d109cf2cf22e485d1cb3514b54f4971fa14f258460030185600501548660060154876007015488600801604051808060200186815260200185815260200184815260200180602001838103835288818154600181600116156101000203166002900481526020019150805460018160011615610100020316600290048015610a185780601f106109ed57610100808354040283529160200191610a18565b820191906000526020600020905b8154815290600101906020018083116109fb57829003601f168201915b5050838103825284818154600181600116156101000203166002900481526020019150805460018160011615610100020316600290048015610a9b5780601f10610a7057610100808354040283529160200191610a9b565b820191906000526020600020905b815481529060010190602001808311610a7e57829003601f168201915b505097505050505050505060405180910390a450505050565b60608060008060606000806002541415610b00576000604051908082528060200260200182016040528015610af85781602001602082028038833980820191505090505b509550610c14565b600254604051908082528060200260200182016040528015610b315781602001602082028038833980820191505090505b50945060009350600192505b60025483111515610b905760016000848152602001908152602001600020600001548585815181101515610b6d57fe5b906020019060200201818152505083806001019450508280600101935050610b3d565b83604051908082528060200260200182016040528015610bbf5781602001602082028038833980820191505090505b509150600090505b83811015610c10578481815181101515610bdd57fe5b906020019060200201518282815181101515610bf557fe5b90602001906020020181815250508080600101915050610bc7565b8195505b505050505090565b6000809054906101000a900473ffffffffffffffffffffffffffffffffffffffff1673ffffffffffffffffffffffffffffffffffffffff163373ffffffffffffffffffffffffffffffffffffffff16141515610c7757600080fd5b6000809054906101000a900473ffffffffffffffffffffffffffffffffffffffff1673ffffffffffffffffffffffffffffffffffffffff16ff5b6000600254905090565b60016020528060005260406000206000915090508060000154908060010160009054906101000a900473ffffffffffffffffffffffffffffffffffffffff16908060020160009054906101000a900473ffffffffffffffffffffffffffffffffffffffff1690806003018054600181600116156101000203166002900480601f016020809104026020016040519081016040528092919081815260200182805460018160011615610100020316600290048015610db95780601f10610d8e57610100808354040283529160200191610db9565b820191906000526020600020905b815481529060010190602001808311610d9c57829003601f168201915b505050505090806004018054600181600116156101000203166002900480601f016020809104026020016040519081016040528092919081815260200182805460018160011615610100020316600290048015610e575780601f10610e2c57610100808354040283529160200191610e57565b820191906000526020600020905b815481529060010190602001808311610e3a57829003601f168201915b505050505090806005015490806006015490806007015490806008018054600181600116156101000203166002900480601f016020809104026020016040519081016040528092919081815260200182805460018160011615610100020316600290048015610f075780601f10610edc57610100808354040283529160200191610f07565b820191906000526020600020905b815481529060010190602001808311610eea57829003601f168201915b5050505050905089565b828054600181600116156101000203166002900490600052602060002090601f016020900481019282601f10610f5257805160ff1916838001178555610f80565b82800160010185558215610f80579182015b82811115610f7f578251825591602001919060010190610f64565b5b509050610f8d9190610f91565b5090565b610fb391905b80821115610faf576000816000905550600101610f97565b5090565b905600a165627a7a723058208e11b01b89d81f46255167587d995c279251b046dde9042a5bb9a4c4bb0326dc0029",
  "source": "pragma solidity ^0.4.24;\n\nimport \"./Owned.sol\";\n\ncontract ReReviews is Owned {\n\n  // Structure to hold Review \n  struct Review {\n    uint id;\n    address reviewer;\n    address visitor;\n    string name;\n    string comments;\n    uint totalUpvotes;\n    uint totalRewards;\n    uint totalDownvotes;\n    string ipfsHash;\n  }\n\n  // State variables to map the address\n  mapping(uint => Review) public reviews;\n  uint reviewCounter;\n\n  //Events to capture Add Review\n  event addReviewEvent(\n    uint indexed _id,\n    address indexed _reviewer,\n    string _name,\n    string _ipfsHash\n    );\n\n  // Events to capture viewing the Review\n  event viewReviewEvent(\n    uint indexed _id,\n    address indexed _reviewer,\n    address indexed _visitor,\n    string _name,\n    uint _totalUpvotes,\n    uint _totalRewards,\n    uint _totalDownvotes,\n    string _ipfsHash);\n\n\n  //Add a review\n  function addReview(string _name, string _comments, string _ipfsHash) public {\n    // a new review\n    reviewCounter++;\n\n    //store this review\n    reviews[reviewCounter] = Review(\n        reviewCounter,\n        msg.sender,\n        0x0,\n        _name,\n        _comments,\n        0,\n        0.000,\n        0,\n        _ipfsHash\n      );\n\n    // trigger the event\n    addReviewEvent(reviewCounter, msg.sender, _name, _ipfsHash);\n  }\n\n  // fetch the number of reviews in the contract\n  function getNumberOfReviews() public constant returns (uint) {\n    return reviewCounter;\n  }\n\n  // fetch and returns all reviews IDs available for visitor\n  function getReviewsToView() public constant returns (uint[]) {\n    // we check whether there is at least one review\n    if(reviewCounter == 0) {\n      return new uint[](0);\n    }\n\n    // prepare intermediary array\n    uint[] memory reviewIds = new uint[](reviewCounter);\n\n    uint numberOfReviewsForVisit = 0;\n    // iterate over reviews\n    for (uint i = 1; i <= reviewCounter; i++) {\n      // keep only the ID of reviews not reviewed yet\n      // if (reviews[i].visitor == 0x0) {\n        reviewIds[numberOfReviewsForVisit] = reviews[i].id;\n        numberOfReviewsForVisit++;\n      // }\n    }\n\n    // copy the reviewsID array into the smaller forReview array\n    uint[] memory forReview = new uint[](numberOfReviewsForVisit);\n    for (uint j = 0; j < numberOfReviewsForVisit; j++) {\n      forReview[j] = reviewIds[j];\n    }\n    return (forReview);\n  }\n\n  // View a review & upvote/downvote it\n  function viewReview(uint _id,uint _totalUp, uint _totalDown) payable public {\n    // we check whether there is at least one review\n    require(reviewCounter > 0);\n    // we check whether the review exists\n    require(_id > 0 && _id <= reviewCounter);\n\n    // we retrieve the review\n    Review storage review = reviews[_id];\n    if(_totalUp == 1 ){\n      review.totalUpvotes = review.totalUpvotes + 1;\n      review.totalRewards = review.totalRewards + msg.value;\n    }\n    if(_totalDown == 1 ){\n      review.totalDownvotes = review.totalDownvotes + 1;\n      review.totalRewards = review.totalRewards - msg.value;\n    }\n    \n    // we check whether the article has not already been sold\n    //require(article.buyer == 0x0);\n\n    // we don't allow the reviewer to upvote/downvote his own reviews\n    require(review.reviewer != msg.sender);\n\n    // keep visitor's information\n    review.visitor = msg.sender;\n\n    // the visitor can review the Reviews\n    review.reviewer.transfer(msg.value);\n\n    // trigger the event\n    viewReviewEvent(_id, review.reviewer, review.visitor, review.name, review.totalUpvotes, review.totalRewards, review.totalDownvotes, review.ipfsHash);\n  }\n\n  //kill the smart contract\n  function kill() onlyOwner {\n    selfdestruct(owner);\n  }\n}\n",
  "sourcePath": "/home/zuiver/ethexplorers/Re-Review/contracts/ReReviews.sol",
  "compiler": {
    "name": "solc",
    "version": "0.4.24+commit.e67f0147.Emscripten.clang"
  },
  "schemaVersion": "2.0.1",
  "updatedAt": "2018-08-12T08:59:58.321Z"
}